:100000000C9434000C9449000C9449000C94490061
:100010000C9449000C9449000C9449000C9449003C
:100020000C9449000C9449000C9449000C94FE0077
:100030000C9449000C9449000C9449000C9449001C
:100040000C9449000C9449000C9449000C9449000C
:100050000C9449000C9449000C9449000C944900FC
:100060000C9449000C94490011241FBECFEFD8E036
:10007000DEBFCDBF11E0A0E0B1E0ECEFF6E002C0E2
:1000800005900D92A430B107D9F70E9440010C945D
:100090007C030C940000982FEAE2F0E0883020F016
:1000A00098EF980FE4E2F0E0613051F4808121E0B4
:1000B00030E001C0220F9A95EAF7822B80830895E1
:1000C000408121E030E001C0220F9A95EAF7922F9B
:1000D000909549234083623051F4E5E2F0E08830A6
:1000E00010F4EBE2F0E08081282B20830895E5E214
:1000F000F0E0883010F4EBE2F0E080819823908308
:100100000895EBE2F0E0883018F08850E5E2F0E086
:10011000662359F0908121E030E001C0220F8A95DA
:10012000EAF7892F822B80830895408121E030E017
:10013000B90102C0660F771F8A95E2F7CB0180955F
:100140008423F1CF8091C00087FFFCCF8091C6004F
:1001500008959091C00095FFFCCF8093C60008954C
:10016000FF920F931F93CF93DF93C82FF62E172F75
:10017000042F85EA0E94A90081E0800F0E94A90057
:100180008C2F0E94A900CF2DD12F0C0F1D2F111DD8
:10019000C017D10731F4DF91CF911F910F91FF90DC
:1001A000089589910E94A900F3CF8630E1F028F4E8
:1001B000833079F0853099F008958A30B9F08B302A
:1001C000C9F0893059F4809180008F778093800046
:1001D00008958091B0008F7D8093B000089584B51C
:1001E0008F7D84BD089584B58F77FBCF809180008B
:1001F0008F7DECCF8091B0008F77EECF1F920F9262
:100200000FB60F9211240F931F932F933F934F9389
:100210005F936F937F938F939F93AF93BF93CF938E
:10022000EF93FF93C0910201009100011091010131
:100230008EEF8C0F8C3058F461E08C2F0E9481007F
:1002400001501109C0F460E08C2F0E948100FF91E1
:10025000EF91CF91BF91AF919F918F917F916F91CE
:100260005F914F913F912F911F910F910F900FBE72
:100270000F901F90189585E08A95F1F70000E0CF68
:10028000CF93DF93CDB7DEB72C970FB6F894DEBFD0
:100290000FBECDBF82E08093C0001092C50080E108
:1002A0008093C40088E18093C10086E08093C200FF
:1002B00083E084BD85BD8093B00084E08093B1006D
:1002C000789461E08DE00E944B0013E061E08DE0E6
:1002D0000E9481002FEF87EE93E0215080409040F4
:1002E000E1F700C0000060E08DE00E948100EFEFC8
:1002F000F7EE23E0E150F0402040E1F700C00000BD
:10030000115021F7CE0101961C0180E2882E81EA6E
:10031000982E87E0A82EB12C0E94A200853AE1F722
:100320000E94A2001FEF180F1830B0F70E94A20021
:10033000082F71018E2D8219811758F0013079F440
:100340001111A2C140E070E060E081E80E94B000BD
:10035000E3CF0E94A200F70181937F01EBCF003130
:10036000A9F4123009F090C119818EEF810F8C3001
:1003700008F08AC1812F0E94D5006A81812F0E94D6
:100380004B0040E070E060E080E1E0CF0131E9F453
:10039000123009F079C119818EEF810F8C3008F08D
:1003A00073C1812F0E94D50061E0812F0E944B0014
:1003B00061E08A81811101C060E0812F0E9481008B
:1003C00040E070E060E081E1C1CF023131F51130F1
:1003D00009F05AC189819EEF980F9C3008F054C1F2
:1003E0008987E9E2F0E0883010F0E3E2F0E0908104
:1003F000883008F0885021E030E001C0220F8A9553
:10040000EAF7892F822391E009F490E09A8742E08D
:10041000BE01675F7F4F82E999CF033121F511302B
:1004200009F032C18981863008F02EC18064809342
:100430007C0087E880937A0080917A0080648093C2
:100440007A0080917A0086FDFCCF809178009091AF
:100450007900298129878A879B8743E0BE01675FEE
:100460007F4F83E973CF043109F06DC0123009F07A
:100470000BC119818EEF810F8C3008F005C10A8104
:1004800087EF810F823058F4FFEFF0930201109252
:100490006F0081E0809380008BE08093810061E0B9
:1004A000812F0E944B008FEF800F8E3F78F0812FBD
:1004B0000E94D50061E0011101C060E0812F0E941F
:1004C000810040E070E060E084E140CF163019F137
:1004D00048F41330C1F01530A1F784B5806284BDB3
:1004E00008BDEFCF1A30E1F01B3029F1193049F780
:1004F0008091800080688093800010E010938900D4
:1005000000938800DECF8091B00080628093B000BD
:100510000093B400D6CF84B5806884BD07BDD1CF29
:100520008091800080628093800010E010938B00A7
:1005300000938A00C6CF8091B00080688093B0009D
:100540000093B300BECF0531D9F5123009F09CC03D
:1005500019818EEF810F8C3008F096C00A81053B1F
:1005600008F004EB812F0E94D50061E0812F0E94EA
:100570004B00202F30E0A0EDB7E00E946D0324EB8C
:1005800030E040E050E00E944B032C503E4F30934F
:1005900001012093000110930201109280002AE0D3
:1005A0002093810080E49CE99093890080938800E7
:1005B00092E090936F0040E070E060E085E1C6CE8D
:1005C000063109F061C0153009F05EC019818EEF67
:1005D000810F8C3008F058C0EA80FB80EFE1EE1606
:1005E000F10428F0CC80DD80C114D10449F460E02E
:1005F000812F0E94810040E070E060E086E1A6CE9D
:1006000061E0812F0E944B00970150E040E0C5015E
:10061000B4010E944B03022F3C879701D6010E9430
:100620006D0328EE33E040E050E00E944B032901C7
:100630003A01F894C12CD12C76014C145D046E045F
:100640007F0411F47894D7CF61E0812F0E9481005C
:10065000802F9C85019770F460E0812F0E948100BB
:10066000802F9C85019758F42FEFC21AD20AE20A14
:10067000F20AE3CFF5E0FA95F1F70000EBCFE5E001
:10068000EA95F1F70000EECF098741E0BE01675F10
:100690007F4F80EE5BCEA1E21A2EAA1BBB1BFD0191
:1006A0000DC0AA1FBB1FEE1FFF1FA217B307E40751
:1006B000F50720F0A21BB30BE40BF50B661F771FA9
:1006C000881F991F1A9469F7609570958095909589
:1006D0009B01AC01BD01CF010895A29FB001B39F62
:1006E000C001A39F700D811D1124911DB29F700D3B
:0C06F000811D1124911D0895F894FFCF86
:0406FC00DC05FF001A
:00000001FF
